:100000000C942A000C943F000C943F000C943F0089
:100010000C943F000C943F000C943F000C943F0064
:100020000C943F000C943F000C943F000C943F0054
:100030000C943F000C943F000C943F000C943F0044
:100040000C943F000C943F000C943F000C943F0034
:100050000C943F0011241FBECFE5D8E0DEBFCDBF1A
:1000600010E0A0E6B0E0E4EFF2E002C005900D92EF
:10007000A837B107D9F70E9455010C9478010C9468
:1000800000001ABA17BA14BA11BA1BBA18BA15BABC
:1000900012BA0895803208F05EC06130F1F018F0B5
:1000A0006230A1F10895E82FE695E695E695F0E037
:1000B000EE0FFF1FE059FF4F0190F081E02D4081CE
:1000C000877021E030E0B90102C0660F771F8A9582
:1000D000E2F7CB01809584233DC0E82FE695E695B5
:1000E000E695F0E0EE0FFF1FE059FF4F0190F08121
:1000F000E02D4081877021E030E0D90102C0AA0FD5
:10010000BB1F8A95E2F7CD01842B24C0282F2695AA
:100110002695269530E0220F331FF901E059FF4F55
:100120000190F081E02D6081877041E050E0DA01BC
:1001300002C0AA0FBB1F8A95E2F7CD019A2F9095B6
:1001400096239083F901E859FF4F0190F081E02D4B
:100150009081892B808308958032C0F5662319F041
:100160006130D9F00895E82FE695E695E695F0E040
:10017000EE0FFF1FE859FF4F0190F081E02D408105
:10018000877021E030E0B90102C0660F771F8A95C1
:10019000E2F7CB018095842318C0E82FE695E69519
:1001A000E695F0E0EE0FFF1FE859FF4F0190F08158
:1001B000E02D4081877021E030E0B90102C0660F78
:1001C000771F8A95E2F7CB01842B808308958032D4
:1001D000C0F4E82FE695E695E695F0E0EE0FFF1FF8
:1001E000E05AFF4F0190F081E02D208130E08770D0
:1001F000A90102C0559547958A95E2F7CA01817019
:1002000008958FEF08958032B8F4E82FE695E695CB
:10021000E695F0E0EE0FFF1FE859FF4F0190F081E7
:10022000E02D3081282F277081E090E001C0880FF9
:100230002A95EAF7832780830895843050F4E82FC5
:10024000F0E0EE0FFF1FE059FF4F0190F081E02D2D
:1002500060830895843050F4E82FF0E0EE0FFF1F24
:10026000E859FF4F0190F081E02D608308958430BC
:1002700058F4E82FF0E0EE0FFF1FE05AFF4F019017
:10028000F081E02D808108958FEF0895843060F42F
:10029000E82FF0E0EE0FFF1FE859FF4F0190F081CB
:1002A000E02D80818095808308956FEF80E00E942B
:1002B0001D01C0E061E08C2F0E94AC002FE986E8B0
:1002C00091E0215080409040E1F700C00000CF5FF6
:1002D000C83081F760E080E00E942A012FE986E8BB
:1002E00091E0215080409040E1F700C00000E1CF54
:0402F000F894FFCFB0
:1002F40039003600330030003B003800350032004E
:080304003A003700340031001B
:00000001FF
